:100000000C942A000C9447000C9447000C94470071
:100010000C9447000C9447000C9447000C94470044
:100020000C9447000C9447000C94C00D0C944700AE
:100030000C9447000C9447000C9447000C94470024
:100040000C9447000C9447000C9447000C94470014
:100050000C94470011241FBECFE5D8E0DEBFCDBF12
:1000600011E0A0E6B0E0ECE0FCE102C005900D92EA
:10007000A43EB107D9F721E0A4EEB1E001C01D9282
:10008000AA3EB207E1F70E948E0D0C94040E0C9468
:1000900000009FBB8EBB6DBBE29AE19AE199FECF57
:1000A0000895E199FECF90E09FBB8EBBE09A8DB39F
:1000B00008950E947C0D82E790E00E946D0D2FEF65
:1000C00089E698E1215080409040E1F700C00000AF
:1000D0000E947C0D80E80E944A0D60E080E00E9452
:1000E000800D81E890E00E946D0D2FEF89E698E188
:1000F000215080409040E1F700C000000E947C0D3C
:1001000080E990E00E946D0D60E081E00E94800D2A
:100110008FE990E00E946D0D0895DF92EF92FF92BB
:100120000F931F93CF93DF9300D01F92CDB7DEB70D
:10013000D82E21E0821311C060E080E00E94800D83
:100140008EEA90E00E946D0D60E081E00E94800DDB
:100150008FEB90E00E946D0DE2C18111E0C10E9421
:100160007C0D60E080E00E94800D8EEA90E00E94AD
:100170006D0DD5C18091600090916100892B09F5CA
:100180008091E90181111DC00E947C0D80ED90E0FD
:100190000E946D0D8FEF94E32CE081509040204041
:1001A000E1F700C000001092E7011092E6018CED2B
:1001B00095E090936100809360000E9459000E9436
:1001C000FE060E94E50C8093E9018091E9018133EC
:1001D000B1F4F0926100E0926000602F802F0E94E5
:1001E000800D81EE90E00E946D0D602F81E00E94F5
:1001F000800D82EF90E00E946D0D81E001C0802FA4
:100200009091E9019233A9F4F0926100E0926000CC
:10021000602F802F0E94800D81EE90E00E946D0D76
:10022000602F81E00E94800D82EF90E00E946D0DB2
:1002300081E09091E9019333A9F4F0926100E0929A
:100240006000602F802F0E94800D81EE90E00E9460
:100250006D0D602F81E00E94800D82EF90E00E9482
:100260006D0D81E09091E9019433E9F4F092610021
:10027000E092600091E0D91216C060E080E00E9438
:10028000800D81EE90E00E946D0D60E081E00E94A3
:10029000800D82EF90E00E946D0D8091E901853321
:1002A00009F052C144C19091E9019533D1F4F09223
:1002B0006100E092600021E0D21213C060E080E0B3
:1002C0000E94800D81EE90E00E946D0D60E081E063
:1002D0000E94800D82EF90E00E946D0D1091E90167
:1002E00008C01091E901882309F444CF813009F056
:1002F00034C10F2EFCEDEF2EF5E0FF2EF02D109205
:10030000E9018091600090916100892B09F580914D
:10031000E90181111DC00E947C0D80ED90E00E94DA
:100320006D0D8FEF94E32CE0815090402040E1F779
:1003300000C000001092E7011092E6018CED95E0FC
:1003400090936100809360000E9459000E94FE0615
:100350000E94E50C813309F0A1C0F0926100E092A7
:100360006000113329F486E690E00E94E90D0EC08A
:10037000123329F488E690E00E94E90D13C013338C
:1003800029F48AE690E00E94E90D88C0143351F404
:100390008CE690E00E94E90D0E94E50C823309F0A2
:1003A000CDC0D6C0153309F079C019821A821B82DC
:1003B00060E080E00E94800D83E091E00E946D0D7E
:1003C00060E081E00E94800D84E191E00E946D0D6B
:1003D00010E035C0612F81E00E94800D8091E9011D
:1003E000882369F18091E9018A3219F481E00E9441
:1003F0008D008091E9010E94680D8FEF92E527E062
:10040000815090402040E1F700C000008091E90158
:10041000E1E0F0E0EC0FFD1FE10FF11D80831130F2
:1004200069F48981880F982F990F990F980F8A8105
:10043000890F90E040970E94E90D1FEF1F5F0E9417
:10044000E50C8093E9018091600090916100892B17
:1004500009F58091E90181111DC00E947C0D80ED9C
:1004600090E00E946D0D8FEF94E32CE0815090405E
:100470002040E1F700C000001092E7011092E60171
:100480008CED95E090936100809360000E9459008C
:100490000E94FE06123008F49DCFA0CF0E94E50C0A
:1004A000823309F04BC0F0926100E092600011339A
:1004B00029F485E690E00E94E90D0EC0123329F47C
:1004C00087E690E00E94E90D13C0133329F489E612
:1004D00090E00E94E90D32C0143351F48BE690E0B5
:1004E0000E94E90D0E94E50C803309F008CF07C097
:1004F000153321F58DE690E00E94E90D1FC0F092C2
:100500006100E0926000D11004C080E00E948D0084
:10051000F6CE81E0D812F3CE0E948D00F0CE00E03E
:100520000F2EFCEDEF2EF5E0FF2EF02D23CE8CEDFF
:1005300095E09093610080936000C0CE0E94E50C2E
:10054000803309F0DCCEDBCF1091E90181E0CECE23
:10055000F0926100E0926000B8CF0F900F900F9082
:10056000DF91CF911F910F91FF90EF90DF90089551
:10057000EF92FF920F931F93CF93DF9300D01F92C0
:10058000CDB7DEB785E291E00E946D0D60E081E0BD
:100590000E94800D0E94AE0B813009F0ADC30E9415
:1005A0007C0D84E391E00E946D0D2FEF84E39CE0CD
:1005B000215080409040E1F700C000008091E601AA
:1005C000813009F0E2C160E080E00E94800D8EEA97
:1005D00090E00E946D0D60E081E00E94800D8FEB45
:1005E00090E00E946D0D00E00F2EFCEDEF2EF5E087
:1005F000FF2EF02D8091600090916100892B09F50C
:100600008091E90181111DC00E947C0D80ED90E078
:100610000E946D0D2FEF84E39CE0215080409040BC
:10062000E1F700C000001092E7011092E6018CEDA6
:1006300095E090936100809360000E9459000E94B1
:10064000FE060E94E50C8093E9018091E901813367
:10065000B1F4F0926100E0926000602F802F0E9460
:10066000800D81EE90E00E946D0D602F81E00E9470
:10067000800D82EF90E00E946D0D81E001C0802F1F
:100680009091E9019233A9F4F0926100E092600048
:10069000602F802F0E94800D81EE90E00E946D0DF2
:1006A000602F81E00E94800D82EF90E00E946D0D2E
:1006B00081E09091E9019333A9F4F0926100E09216
:1006C0006000602F802F0E94800D81EE90E00E94DC
:1006D0006D0D602F81E00E94800D82EF90E00E94FE
:1006E0006D0D81E09091E9019433D9F48CED95E0A2
:1006F000909361008093600060E080E00E94800D34
:1007000081EE90E00E946D0D60E081E00E94800D1E
:1007100082EF90E00E946D0D8091E901853329F010
:100720004AC39091E9019533C9F48CED95E090931B
:1007300061008093600060E080E00E94800D81EEA7
:1007400090E00E946D0D60E081E00E94800D82EFDC
:1007500090E00E946D0D1091E90108C01091E9012F
:10076000882309F447CF813009F03EC30F2EFCEDFA
:10077000EF2EF5E0FF2EF02D1092E9018091600040
:1007800090916100892B09F58091E90181111DC0CB
:100790000E947C0D80ED90E00E946D0D2FEF84E3B0
:1007A0009CE0215080409040E1F700C00000109292
:1007B000E7011092E6018CED95E090936100809343
:1007C00060000E9459000E94FE060E94E50C8133E1
:1007D00009F0A1C0F0926100E0926000113329F4A9
:1007E00086E690E00E94E90D0EC0123329F488E6F7
:1007F00090E00E94E90D13C0133329F48AE690E0DB
:100800000E94E90D88C0143351F48CE690E00E94F8
:10081000E90D0E94E50C823309F0D0C2DBC215332A
:1008200009F079C019821A821B8260E080E00E9480
:10083000800D83E091E00E946D0D60E081E00E94F8
:10084000800D84E191E00E946D0D10E035C0612FB4
:1008500081E00E94800D8091E901882369F18091F7
:10086000E9018A3219F481E00E948D008091E9014A
:100870000E94680D2FEF82E597E021508040904064
:10088000E1F700C000008091E901E1E0F0E0EC0F49
:10089000FD1FE10FF11D8083113069F48981880FFC
:1008A000982F990F990F980F8A81890F90E04097A0
:1008B0000E94E90D1FEF1F5F0E94E50C8093E90184
:1008C0008091600090916100892B09F58091E90188
:1008D00081111DC00E947C0D80ED90E00E946D0D85
:1008E0002FEF84E39CE0215080409040E1F700C06E
:1008F00000001092E7011092E6018CED95E09093D4
:100900006100809360000E9459000E94FE06123030
:1009100008F49DCFA0CF0E94E50C823309F04EC2AF
:10092000F0926100E0926000113329F485E690E0D6
:100930000E94E90D0EC0123329F487E690E00E9470
:10094000E90D13C0133329F489E690E00E94E90D04
:1009500035C2143351F48BE690E00E94E90D0E94F9
:10096000E50C803309F008CF08C0153309F026C222
:100970008DE690E00E94E90D21C2F0926100E092C4
:10098000600081E00E948D00F7CE8091E701813008
:1009900009F02AC20E947C0D60E080E00E94800D78
:1009A0008EEA90E00E946D0D00E00F2EFCEDEF2E20
:1009B000F5E0FF2EF02D8091600090916100892B71
:1009C00009F58091E90181111DC00E947C0D80ED27
:1009D00090E00E946D0D2FEF84E39CE02150804059
:1009E0009040E1F700C000001092E7011092E6018C
:1009F0008CED95E090936100809360000E94590017
:100A00000E94FE060E94E50C8093E9018091E901B5
:100A10008133B1F4F0926100E0926000602F802F8A
:100A20000E94800D81EE90E00E946D0D602F81E0AC
:100A30000E94800D82EF90E00E946D0D81E001C068
:100A4000802F9091E9019233A9F4F0926100E09235
:100A50006000602F802F0E94800D81EE90E00E9448
:100A60006D0D602F81E00E94800D82EF90E00E946A
:100A70006D0D81E09091E9019333A9F4F09261004A
:100A8000E0926000602F802F0E94800D81EE90E048
:100A90000E946D0D602F81E00E94800D82EF90E03A
:100AA0000E946D0D81E09091E901943321F4F09260
:100AB0006100E09260009091E901953321F4F09299
:100AC0006100E09260001091E901882309F473CF7E
:100AD0000FC10F2EFCEDEF2EF5E0FF2EF02D109242
:100AE000E9018091600090916100892B09F5809166
:100AF000E90181111DC00E947C0D80ED90E00E94F3
:100B00006D0D2FEF84E39CE0215080409040E1F791
:100B100000C000001092E7011092E6018CED95E014
:100B200090936100809360000E9459000E94FE062D
:100B30000E94E50C813309F0A1C0F0926100E092BF
:100B40006000113329F486E690E00E94E90D0EC0A2
:100B5000123329F488E690E00E94E90D13C01333A4
:100B600029F48AE690E00E94E90D88C0143351F41C
:100B70008CE690E00E94E90D0E94E50C823309F0BA
:100B800023C12DC1153309F079C019821A821B8245
:100B900060E080E00E94800D83E091E00E946D0D96
:100BA00060E081E00E94800D84E191E00E946D0D83
:100BB00010E035C0612F81E00E94800D8091E90135
:100BC000882369F18091E9018A3219F481E00E9459
:100BD0008D008091E9010E94680D2FEF82E597E07A
:100BE000215080409040E1F700C000008091E90171
:100BF000E1E0F0E0EC0FFD1FE10FF11D808311300B
:100C000069F48981880F982F990F990F980F8A811D
:100C1000890F90E040970E94E90D1FEF1F5F0E942F
:100C2000E50C8093E9018091600090916100892B2F
:100C300009F58091E90181111DC00E947C0D80EDB4
:100C400090E00E946D0D2FEF84E39CE021508040E6
:100C50009040E1F700C000001092E7011092E60119
:100C60008CED95E090936100809360000E945900A4
:100C70000E94FE06123008F49DCFA0CF0E94E50C22
:100C8000823309F0A1C0F0926100E092600011335C
:100C900029F485E690E00E94E90D0EC0123329F494
:100CA00087E690E00E94E90D13C0133329F489E62A
:100CB00090E00E94E90D88C0143351F48BE690E077
:100CC0000E94E90D0E94E50C803309F008CF08C0AE
:100CD000153309F079C08DE690E00E94E90D74C0EB
:100CE000F0926100E092600080E00E948D00F7CEFB
:100CF000813009F4EECE78C0811176C08FE391E0A7
:100D00000E946D0D2FEF89E698E1215080409040C0
:100D1000E1F700C000000E947C0D8091E5018F5F2B
:100D20008093E501823018F40E94B8025DC08BE424
:100D300091E00E946D0D60E081E00E94800D88E5E9
:100D400091E00E946D0D2FEF87E893E121508040E4
:100D50009040E1F700C000000E947C0D84E691E025
:100D60000E946D0D61E070E08AE090E00E94490011
:100D70002FEF83E294EF215080409040E1F700C0D4
:100D8000000060E070E08AE090E00E94490060E0CE
:100D900081E00E94800D1092E7011092E60110920E
:100DA000E5018CED95E090936100809360000E94D6
:100DB00059000E94FE061091E901D8CC0E94E50C72
:100DC000803309F0D9CCD9CD0E94E50C803309F0ED
:100DD00086CE86CFF0926100E0926000B3CDF092B3
:100DE0006100E092600061CF0F900F900F90DF9153
:100DF000CF911F910F91FF90EF900895CF93DF93C4
:100E000000D01F92CDB7DEB701E00F2EFCEDCF2E44
:100E1000F5E0DF2EF02D58C40093E7010E947C0D11
:100E20002FEF80E792E0215080409040E1F700C032
:100E3000000083E791E00E946D0D60E0802F0E942A
:100E4000800D0E94AE0B813009F0C3C10E947C0D61
:100E500083E891E00E946D0D60E0802F0E94800D7C
:100E600082E991E00E946D0D2FEF84E39CE0215018
:100E700080409040E1F700C000000E947C0D60E0DF
:100E800080E00E94800D8EEA90E00E946D0DF12CB2
:100E90008091600090916100892B09F58091E901B2
:100EA00081111DC00E947C0D80ED90E00E946D0DAF
:100EB0002FEF84E39CE0215080409040E1F700C098
:100EC00000001092E7011092E6018CED95E09093FE
:100ED0006100809360000E9459000E94FE060E94FB
:100EE000E50C8093E9018091E9018133B1F4D0925E
:100EF0006100C09260006F2D8F2D0E94800D81EEE9
:100F000090E00E946D0D6F2D802F0E94800D82EF6A
:100F100090E00E946D0D802F01C08F2D9091E9010E
:100F20009233A9F4D0926100C09260006F2D8F2D92
:100F30000E94800D81EE90E00E946D0D6F2D802F3C
:100F40000E94800D82EF90E00E946D0D802F9091A5
:100F5000E9019333A9F4D0926100C09260006F2D33
:100F60008F2D0E94800D81EE90E00E946D0D6F2DFF
:100F7000802F0E94800D82EF90E00E946D0D802FE7
:100F80009091E901943321F4D0926100C092600005
:100F90009091E901953321F4D0926100C0926000F4
:100FA0001091E901882309F473CF0FC10F2EFCEDD6
:100FB000EF2EF5E0FF2EF02D1092E90180916000F8
:100FC00090916100892B09F58091E90181111DC083
:100FD0000E947C0D80ED90E00E946D0D2FEF84E368
:100FE0009CE0215080409040E1F700C0000010924A
:100FF000E7011092E6018CED95E0909361008093FB
:1010000060000E9459000E94FE060E94E50C813398
:1010100009F0A1C0F0926100E0926000113329F460
:1010200086E690E00E94E90D0EC0123329F488E6AE
:1010300090E00E94E90D13C0133329F48AE690E092
:101040000E94E90D88C0143351F48CE690E00E94B0
:10105000E90D0E94E50C823309F067C375C31533AF
:1010600009F079C019821A821B8260E080E00E9438
:10107000800D83E091E00E946D0D60E081E00E94B0
:10108000800D84E191E00E946D0D10E035C0612F6C
:1010900081E00E94800D8091E901882369F18091AF
:1010A000E9018A3219F481E00E948D008091E90102
:1010B0000E94680D2FEF82E597E02150804090401C
:1010C000E1F700C000008091E901E1E0F0E0EC0F01
:1010D000FD1FE10FF11D8083113069F48981880FB4
:1010E000982F990F990F980F8A81890F90E0409758
:1010F0000E94E90D1FEF1F5F0E94E50C8093E9013C
:101100008091600090916100892B09F58091E9013F
:1011100081111DC00E947C0D80ED90E00E946D0D3C
:101120002FEF84E39CE0215080409040E1F700C025
:1011300000001092E7011092E6018CED95E090938B
:101140006100809360000E9459000E94FE061230E8
:1011500008F49DCFA0CF0E94E50C823309F0E5C2D0
:10116000F0926100E0926000113329F485E690E08E
:101170000E94E90D0EC0123329F487E690E00E9428
:10118000E90D13C0133329F489E690E00E94E90DBC
:10119000CCC2143351F48BE690E00E94E90D0E941A
:1011A000E50C803309F008CF08C0153309F0BDC243
:1011B0008DE690E00E94E90DB8C2F0926100E092E5
:1011C000600080E00E948D00F7CE813009F4EECE01
:1011D0007BC2811179C28FE391E00E946D0D2FEFE8
:1011E00089E698E1215080409040E1F700C000007E
:1011F0000E947C0D0E94B80267C28091E90182338F
:1012000009F062C20093E60185E090E00E9451007F
:101210007C018FEF90E00E945100E816F90609F476
:101220001EC20E947C0D2FEF80E792E0215080408B
:101230009040E1F700C0000085E291E00E946D0D52
:1012400060E0802F0E94800D0E94AE0B813009F07B
:10125000F4C10E947C0D8BE991E00E946D0D60E06D
:10126000802F0E94800D82E991E00E946D0D2FEF8A
:1012700084E39CE0215080409040E1F700C00000F2
:1012800060E080E00E94800D8EEA90E00E946D0D8B
:1012900060E0802F0E94800D8FEB90E00E946D0D2A
:1012A000F12C8091600090916100892B09F580916B
:1012B000E90181111DC00E947C0D80ED90E00E942B
:1012C0006D0D2FEF84E39CE0215080409040E1F7CA
:1012D00000C000001092E7011092E6018CED95E04D
:1012E00090936100809360000E9459000E94FE0666
:1012F0000E94E50C8093E9018091E9018133B1F40A
:10130000D0926100C09260006F2D8F2D0E94800DE1
:1013100081EE90E00E946D0D6F2D802F0E94800D58
:1013200082EF90E00E946D0D802F01C08F2D909173
:10133000E9019233A9F4D0926100C09260006F2D50
:101340008F2D0E94800D81EE90E00E946D0D6F2D1B
:10135000802F0E94800D82EF90E00E946D0D802F03
:101360009091E9019333A9F4D0926100C09260009A
:101370006F2D8F2D0E94800D81EE90E00E946D0DEB
:101380006F2D802F0E94800D82EF90E00E946D0DE6
:10139000802F9091E9019433E1F48CED95E09093E6
:1013A00061008093600060E080E00E94800D81EE2B
:1013B00090E00E946D0D60E081E00E94800D82EF60
:1013C00090E00E946D0D8091E901853309F0B3C171
:1013D00004C09091E9019533C9F48CED95E09093A8
:1013E00061008093600060E080E00E94800D81EEEB
:1013F00090E00E946D0D60E081E00E94800D82EF20
:1014000090E00E946D0D1091E90108C01091E90172
:10141000882309F446CF813009F056C10F2EFCED28
:10142000EF2EF5E0FF2EF02D1092E9018091600083
:1014300090916100892B09F58091E90181111DC00E
:101440000E947C0D80ED90E00E946D0D2FEF84E3F3
:101450009CE0215080409040E1F700C000001092D5
:10146000E7011092E6018CED95E090936100809386
:1014700060000E9459000E94FE060E94E50C813324
:1014800009F0A1C0F0926100E0926000113329F4EC
:1014900086E690E00E94E90D0EC0123329F488E63A
:1014A00090E00E94E90D13C0133329F48AE690E01E
:1014B0000E94E90D88C0143351F48CE690E00E943C
:1014C000E90D0E94E50C823309F038C142C11533A1
:1014D00009F079C019821A821B8260E080E00E94C4
:1014E000800D83E091E00E946D0D60E081E00E943C
:1014F000800D84E191E00E946D0D10E035C0612FF8
:1015000081E00E94800D8091E901882369F180913A
:10151000E9018A3219F481E00E948D008091E9018D
:101520000E94680D2FEF82E597E0215080409040A7
:10153000E1F700C000008091E901E1E0F0E0EC0F8C
:10154000FD1FE10FF11D8083113069F48981880F3F
:10155000982F990F990F980F8A81890F90E04097E3
:101560000E94E90D1FEF1F5F0E94E50C8093E901C7
:101570008091600090916100892B09F58091E901CB
:1015800081111DC00E947C0D80ED90E00E946D0DC8
:101590002FEF84E39CE0215080409040E1F700C0B1
:1015A00000001092E7011092E6018CED95E0909317
:1015B0006100809360000E9459000E94FE06123074
:1015C00008F49DCFA0CF0E94E50C823309F0B6C08D
:1015D000F0926100E0926000113329F485E690E01A
:1015E0000E94E90D0EC0123329F487E690E00E94B4
:1015F000E90D13C0133329F489E690E00E94E90D48
:101600009DC0143351F48BE690E00E94E90D0E94D6
:10161000E50C803309F008CF08C0153309F08EC0FF
:101620008DE690E00E94E90D89C0F0926100E092A1
:10163000600081E00E948D00F7CE8FE391E00E9470
:101640006D0D2FEF89E698E1215080409040E1F741
:1016500000C000000E947C0D0E94B80235C085E0E9
:1016600090E00E9451007C018FEF90E00E945100B9
:10167000E816F90649F50E947C0D8AEA91E00E947D
:101680006D0D60E0802F0E94800D89EB91E00E943B
:101690006D0D2FEF89E698E1215080409040E1F7F1
:1016A00000C000000E947C0D2FEF82E597E02150E2
:1016B00080409040E1F700C000008091E8018F5F1A
:1016C0008093E8010E94AE0B0E94E50C8093E90133
:1016D0008091600090916100892B09F58091E9016A
:1016E00081111DC00E947C0D80ED90E00E946D0D67
:1016F0002FEF84E39CE0215080409040E1F700C050
:1017000000001092E7011092E6018CED95E09093B5
:101710006100809360000E9459000E94FE06809143
:10172000E901813309F478CB68CD0E94E50C803360
:1017300009F042CC42CD1091E90170CE0E94E50C37
:10174000803309F071CE71CFF0926100E0926000B9
:1017500019CDF0926100E09260004CCFEF92FF92C1
:101760001F93CF93DF9300D000D0CDB7DEB78FEFBC
:1017700089838A838B838C8310E0809160009091B1
:101780006100892B09F58091E90181111DC00E943A
:101790007C0D80ED90E00E946D0D2FEF84E39CE0C6
:1017A000215080409040E1F700C000001092E70116
:1017B0001092E6018CED95E09093610080936000BB
:1017C0000E9459000E94FE060E94E50C8093E901E8
:1017D0008091E901803321F58091E9010E94680D33
:1017E0002FEF82E597E0215080409040E1F700C064
:1017F0000000612F81E00E94800D8AE20E94680D46
:101800008091E901E1E0F0E0EC0FFD1FE10FF11D37
:1018100080838091E4018F5F8093E4011F5F58C053
:101820008091E901882309F453C08091E901803354
:1018300009F44EC08091E401882309F44EC08F5F03
:101840008093E4012FEF82E597E0215080409040A3
:10185000E1F700C000008091E9010E94680D8091CD
:10186000E801811105C0612F81E00E94800D06C052
:10187000813021F4612F80E00E94800D2FEF82E5FE
:1018800097E0215080409040E1F700C000008AE2DC
:101890000E94680D8091E901E1E0F0E0EC0FFD1F8E
:1018A000E10FF11D80831F5F8091E801813081F499
:1018B0006091E90170E0812F90E004960E94490058
:1018C000143031F40E947C0D88EC91E00E946D0D83
:1018D0008091E4018F5F8093E401143008F44DCFD0
:1018E00019811033B9F48A818033A1F48B8180335C
:1018F00089F48C81803371F48091E701813029F47F
:101900008091E601882309F440C08091E60181308E
:10191000D9F53DC085E090E00E9451007C018FEF39
:1019200090E00E945100E816F90699F185E090E0F8
:101930000E945100212F30E02817390761F5EA8015
:10194000F12C86E090E00E945100E816F90629F596
:10195000EB80F12C87E090E00E945100E816F90638
:10196000F1F4EC80F12C88E090E00E945100E81640
:10197000F906B9F48091E6018130A9F49091E7016C
:10198000992391F080E010C00FC081E00DC080E08D
:101990000BC080E009C080E007C080E005C080E0A7
:1019A00003C080E001C080E00F900F900F900F9077
:1019B000DF91CF911F91FF90EF90089584B38F60D6
:1019C00084BB85B38FEF85BB0895CF93DF93CDB7ED
:1019D000DEB760970FB6F894DEBF0FBECDBF80E1D3
:1019E000E2E6F0E0DE01119601900D928A95E1F7B2
:1019F00080E090E0EFEF61E070E025B3E5BB35B348
:101A0000AB01082E02C0440F551F0A94E2F7242FA1
:101A10002095232325BB9C9B0FC09D9B07C09E9BAD
:101A200008C09F991AC023E030E008C021E030E0F0
:101A300005C022E030E002C020E030E0880F991FAE
:101A4000880F991F41E050E04C0F5D1F840F951FD8
:101A5000FC01E20FF31F808105C0019684309105DF
:101A600061F680E060960FB6F894DEBF0FBECDBF82
:101A7000DF91CF910895C29A8FE097E20197F1F735
:101A800000C00000C2988FE097E20197F1F700C014
:101A90000000089582BBC0980E943B0D08958FEF0F
:101AA00081BB87B3876087BBC19888E30E944A0DDA
:101AB00081E00E944A0D8EE00E944A0D80E80E945B
:101AC0004A0D8FE295E70197F1F700C000000895F5
:101AD00082BBC09A0E943B0D0895CF93DF93EC0127
:101AE0008881882331F021960E94680D89918111A7
:101AF000FBCFDF91CF91089581E00E944A0D0895B8
:101B0000811103C080E8860F06C0813019F480EC93
:101B1000860F01C080E00E944A0D08950E944F0D7B
:101B20000E94DE0C0E94EF0D0E94E10D78941DC012
:101B30000E947C0D8BE491E00E946D0D60E081E0DD
:101B40000E94800D88ED91E00E946D0D2FEF83E2E1
:101B500094EF215080409040E1F700C0000060E029
:101B600070E08AE090E00E9449008AE090E00E94E4
:101B700051000197E9F20E9459000E94FE06F5CF3C
:101B80001F920F920FB60F9211248F939F93809103
:101B900060009091610001979093610080936000D4
:101BA0008091E901882331F08CED95E090936100FC
:101BB000809360009F918F910F900FBE0F901F90A8
:101BC0001895699A6C9ABC9ABD9ABF9AC49A6E9AF3
:101BD0000895C4988FB9779BFECFC49A089583B7B0
:101BE000886083BF83B78F7B83BF8EE48CBF89B748
:101BF000826089BF83B7846083BF83B7816083BFFE
:0C1C000083B78D7F83BF0895F894FFCF59
:101C0C00DC053738392F3435362A3132332D413013
:101C1C003D2B2020202057656C636F6D65202020A4
:101C2C0000506C656173652063686F6F73653A0073
:101C3C004775657374204D6F646520283129004108
:101C4C00646D696E204D6F64652028322900313A2D
:101C5C004C3120323A4C3220333A4C332020003471
:101C6C003A545620353A4169725F436F6E2020001A
:101C7C0053657373696F6E2074696D65206F75742D
:101C8C0000313A4F4E20202020202020323A4F465F
:101C9C004600303A4261636B202020202020202017
:101CAC00202000456E7465722074656D702044654B
:101CBC00673A20005F5F202020205820666F72203A
:101CCC006261636B00456E7465722050617373774B
:101CDC006F726400202020205061737365640020B3
:101CEC004E6F742050617373656400497420736582
:101CFC00656D7320596F750061726520426C6F635E
:101D0C006B656400466F72203135206D696E757499
:101D1C00657300456E7465722050617373776F72D2
:101D2C00643A00456E746572696E672067756573F9
:101D3C0074006D6F6465202E2E2E00456E746572D6
:101D4C00696E672061646D696E00456E7465722002
:101D5C0070617373776F726400666F72206669725C
:101D6C0073742074696D65002050617373776F72A2
:101D7C00642073617665640061726520626C6F63C8
:041D8C006B6564001F
:00000001FF
