S01800004D792070726F6A65637420736C6176652E73726563F4
S11300000C942A000C9434000C9434000C943400A6
S11300100C9434000C9434000C9434000C9434008C
S11300200C9434000C9434000C9434000C9434007C
S11300300C9434000C9434000C9434000C9434006C
S11300400C9434000C9434000C9434000C9434005C
S11300500C94340011241FBECFE5D8E0DEBFCDBF21
S11300600E9442000C94B3000C9400003E9A319A12
S1130070379A0895369A349BFECF84B125B190E027
S1130080922B08958AB38F638ABB0E94AC000E94AE
S113009036000E944C00FDCFCF930E94AF00C82FC2
S11300A00E943A008233910518F49695879525C0ED
S11300B09C01225331092A34310520F49695879501
S11300C001971BC09C012C5731092C34310520F4B5
S11300D096958795029711C09C01285C31092C34B0
S11300E0310520F496958795039707C0843121E064
S11300F0920718F09695879504972C2F30E02817CF
S1130100390708F4DD9A8217930708F4DD98C53699
S113011011F4DC981FC0C63611F4DC9A1BC0C73634
S113012011F4DB9817C0C83611F4DB9A13C0C93632
S113013011F4DA980FC0CA3611F4DA9A0BC0CB3630
S113014011F4D99807C0CC3611F4D99A03C0CD362E
S113015009F4D898CF9108956E9ABE9A0895779B22
S10D0160FECF8FB10895F894FFCF8D
S9030000FC
